{
  "_format": "hh-sol-artifact-1",
  "contractName": "Lock",
  "sourceName": "contracts/Lock.sol",
  "abi": [
    {
      "anonymous": false,
      "inputs": [
        {
          "indexed": false,
          "internalType": "string",
          "name": "electionName",
          "type": "string"
        },
        {
          "indexed": false,
          "internalType": "string",
          "name": "candidateName",
          "type": "string"
        }
      ],
      "name": "VoteCast",
      "type": "event"
    },
    {
      "inputs": [
        {
          "internalType": "string",
          "name": "_electionName",
          "type": "string"
        },
        {
          "internalType": "string[]",
          "name": "_candidates",
          "type": "string[]"
        }
      ],
      "name": "addElectionWithCandidates",
      "outputs": [],
      "stateMutability": "nonpayable",
      "type": "function"
    },
    {
      "inputs": [
        {
          "internalType": "string",
          "name": "_electionName",
          "type": "string"
        }
      ],
      "name": "getCandidateNames",
      "outputs": [
        {
          "internalType": "string[]",
          "name": "",
          "type": "string[]"
        }
      ],
      "stateMutability": "view",
      "type": "function"
    },
    {
      "inputs": [
        {
          "internalType": "string",
          "name": "_electionName",
          "type": "string"
        },
        {
          "internalType": "string",
          "name": "_candidateName",
          "type": "string"
        }
      ],
      "name": "getCandidateVotes",
      "outputs": [
        {
          "internalType": "uint256",
          "name": "",
          "type": "uint256"
        }
      ],
      "stateMutability": "view",
      "type": "function"
    },
    {
      "inputs": [
        {
          "internalType": "string",
          "name": "_electionName",
          "type": "string"
        }
      ],
      "name": "getElectionResult",
      "outputs": [
        {
          "internalType": "string",
          "name": "",
          "type": "string"
        },
        {
          "internalType": "string[]",
          "name": "",
          "type": "string[]"
        },
        {
          "internalType": "uint256[]",
          "name": "",
          "type": "uint256[]"
        }
      ],
      "stateMutability": "view",
      "type": "function"
    },
    {
      "inputs": [
        {
          "internalType": "string",
          "name": "_electionName",
          "type": "string"
        },
        {
          "internalType": "string",
          "name": "_candidateName",
          "type": "string"
        }
      ],
      "name": "vote",
      "outputs": [],
      "stateMutability": "nonpayable",
      "type": "function"
    }
  ],
  "bytecode": "0x608060405234801561001057600080fd5b50611682806100206000396000f3fe608060405234801561001057600080fd5b50600436106100575760003560e01c806330117d241461005c578063897de252146100785780639d3adf5b146100aa578063b7ff50fc146100da578063e8d5940d1461010a575b600080fd5b61007660048036038101906100719190610c3c565b610126565b005b610092600480360381019061008d9190610cb4565b6102f0565b6040516100a193929190610f50565b60405180910390f35b6100c460048036038101906100bf9190610cb4565b610612565b6040516100d19190610f9c565b60405180910390f35b6100f460048036038101906100ef9190610fbe565b6107bf565b6040516101019190611045565b60405180910390f35b610124600480360381019061011f9190610fbe565b6108b9565b005b600082511161016a576040517f08c379a0000000000000000000000000000000000000000000000000000000008152600401610161906110ac565b60405180910390fd5b6000808360405161017b9190611108565b908152602001604051809103902060000180546101979061114e565b9050146101d9576040517f08c379a00000000000000000000000000000000000000000000000000000000081526004016101d0906111cb565b60405180910390fd5b816000836040516101ea9190611108565b908152602001604051809103902060000190816102079190611397565b5060005b81518110156102eb57600080846040516102259190611108565b908152602001604051809103902060020183838151811061024957610248611469565b5b602002602001015160405161025e9190611108565b9081526020016040518091039020819055506000836040516102809190611108565b90815260200160405180910390206001018282815181106102a4576102a3611469565b5b60200260200101519080600181540180825580915050600190039060005260206000200160009091909190915090816102dd9190611397565b50808060010191505061020b565b505050565b60608060606000845111610339576040517f08c379a0000000000000000000000000000000000000000000000000000000008152600401610330906110ac565b60405180910390fd5b6000808560405161034a9190611108565b908152602001604051809103902060000180546103669061114e565b9050116103a8576040517f08c379a000000000000000000000000000000000000000000000000000000000815260040161039f906114e4565b60405180910390fd5b600080856040516103b99190611108565b9081526020016040518091039020905060008160010180549050905060008167ffffffffffffffff8111156103f1576103f0610a2b565b5b60405190808252806020026020018201604052801561041f5781602001602082028036833780820191505090505b50905060005b82811015610499578360020184600101828154811061044757610446611469565b5b9060005260206000200160405161045e9190611587565b9081526020016040518091039020548282815181106104805761047f611469565b5b6020026020010181815250508080600101915050610425565b508260000183600101828280546104af9061114e565b80601f01602080910402602001604051908101604052809291908181526020018280546104db9061114e565b80156105285780601f106104fd57610100808354040283529160200191610528565b820191906000526020600020905b81548152906001019060200180831161050b57829003601f168201915b5050505050925081805480602002602001604051908101604052809291908181526020016000905b828210156105fc57838290600052602060002001805461056f9061114e565b80601f016020809104026020016040519081016040528092919081815260200182805461059b9061114e565b80156105e85780601f106105bd576101008083540402835291602001916105e8565b820191906000526020600020905b8154815290600101906020018083116105cb57829003601f168201915b505050505081526020019060010190610550565b5050505091509550955095505050509193909250565b60606000825111610658576040517f08c379a000000000000000000000000000000000000000000000000000000000815260040161064f906110ac565b60405180910390fd5b600080836040516106699190611108565b908152602001604051809103902060000180546106859061114e565b9050116106c7576040517f08c379a00000000000000000000000000000000000000000000000000000000081526004016106be906114e4565b60405180910390fd5b6000826040516106d79190611108565b9081526020016040518091039020600101805480602002602001604051908101604052809291908181526020016000905b828210156107b45783829060005260206000200180546107279061114e565b80601f01602080910402602001604051908101604052809291908181526020018280546107539061114e565b80156107a05780601f10610775576101008083540402835291602001916107a0565b820191906000526020600020905b81548152906001019060200180831161078357829003601f168201915b505050505081526020019060010190610708565b505050509050919050565b600080835111610804576040517f08c379a00000000000000000000000000000000000000000000000000000000081526004016107fb906110ac565b60405180910390fd5b600080846040516108159190611108565b908152602001604051809103902060000180546108319061114e565b905011610873576040517f08c379a000000000000000000000000000000000000000000000000000000000815260040161086a906114e4565b60405180910390fd5b6000836040516108839190611108565b9081526020016040518091039020600201826040516108a29190611108565b908152602001604051809103902054905092915050565b60008251116108fd576040517f08c379a00000000000000000000000000000000000000000000000000000000081526004016108f4906110ac565b60405180910390fd5b6000808360405161090e9190611108565b9081526020016040518091039020600001805461092a9061114e565b90501161096c576040517f08c379a0000000000000000000000000000000000000000000000000000000008152600401610963906114e4565b60405180910390fd5b60008260405161097c9190611108565b90815260200160405180910390206002018160405161099b9190611108565b908152602001604051809103902060008154809291906109ba906115cd565b91905055507f137ad23732468494166ec34d1367743690ffa17f6ceac8429cba8fc35d088b6e82826040516109f0929190611615565b60405180910390a15050565b6000604051905090565b600080fd5b600080fd5b600080fd5b600080fd5b6000601f19601f8301169050919050565b7f4e487b7100000000000000000000000000000000000000000000000000000000600052604160045260246000fd5b610a6382610a1a565b810181811067ffffffffffffffff82111715610a8257610a81610a2b565b5b80604052505050565b6000610a956109fc565b9050610aa18282610a5a565b919050565b600067ffffffffffffffff821115610ac157610ac0610a2b565b5b610aca82610a1a565b9050602081019050919050565b82818337600083830152505050565b6000610af9610af484610aa6565b610a8b565b905082815260208101848484011115610b1557610b14610a15565b5b610b20848285610ad7565b509392505050565b600082601f830112610b3d57610b3c610a10565b5b8135610b4d848260208601610ae6565b91505092915050565b600067ffffffffffffffff821115610b7157610b70610a2b565b5b602082029050602081019050919050565b600080fd5b6000610b9a610b9584610b56565b610a8b565b90508083825260208201905060208402830185811115610bbd57610bbc610b82565b5b835b81811015610c0457803567ffffffffffffffff811115610be257610be1610a10565b5b808601610bef8982610b28565b85526020850194505050602081019050610bbf565b5050509392505050565b600082601f830112610c2357610c22610a10565b5b8135610c33848260208601610b87565b91505092915050565b60008060408385031215610c5357610c52610a06565b5b600083013567ffffffffffffffff811115610c7157610c70610a0b565b5b610c7d85828601610b28565b925050602083013567ffffffffffffffff811115610c9e57610c9d610a0b565b5b610caa85828601610c0e565b9150509250929050565b600060208284031215610cca57610cc9610a06565b5b600082013567ffffffffffffffff811115610ce857610ce7610a0b565b5b610cf484828501610b28565b91505092915050565b600081519050919050565b600082825260208201905092915050565b60005b83811015610d37578082015181840152602081019050610d1c565b60008484015250505050565b6000610d4e82610cfd565b610d588185610d08565b9350610d68818560208601610d19565b610d7181610a1a565b840191505092915050565b600081519050919050565b600082825260208201905092915050565b6000819050602082019050919050565b600082825260208201905092915050565b6000610dc482610cfd565b610dce8185610da8565b9350610dde818560208601610d19565b610de781610a1a565b840191505092915050565b6000610dfe8383610db9565b905092915050565b6000602082019050919050565b6000610e1e82610d7c565b610e288185610d87565b935083602082028501610e3a85610d98565b8060005b85811015610e765784840389528151610e578582610df2565b9450610e6283610e06565b925060208a01995050600181019050610e3e565b50829750879550505050505092915050565b600081519050919050565b600082825260208201905092915050565b6000819050602082019050919050565b6000819050919050565b610ec781610eb4565b82525050565b6000610ed98383610ebe565b60208301905092915050565b6000602082019050919050565b6000610efd82610e88565b610f078185610e93565b9350610f1283610ea4565b8060005b83811015610f43578151610f2a8882610ecd565b9750610f3583610ee5565b925050600181019050610f16565b5085935050505092915050565b60006060820190508181036000830152610f6a8186610d43565b90508181036020830152610f7e8185610e13565b90508181036040830152610f928184610ef2565b9050949350505050565b60006020820190508181036000830152610fb68184610e13565b905092915050565b60008060408385031215610fd557610fd4610a06565b5b600083013567ffffffffffffffff811115610ff357610ff2610a0b565b5b610fff85828601610b28565b925050602083013567ffffffffffffffff8111156110205761101f610a0b565b5b61102c85828601610b28565b9150509250929050565b61103f81610eb4565b82525050565b600060208201905061105a6000830184611036565b92915050565b7f456c656374696f6e206e616d652063616e6e6f7420626520656d707479000000600082015250565b6000611096601d83610d08565b91506110a182611060565b602082019050919050565b600060208201905081810360008301526110c581611089565b9050919050565b600081905092915050565b60006110e282610cfd565b6110ec81856110cc565b93506110fc818560208601610d19565b80840191505092915050565b600061111482846110d7565b915081905092915050565b7f4e487b7100000000000000000000000000000000000000000000000000000000600052602260045260246000fd5b6000600282049050600182168061116657607f821691505b6020821081036111795761117861111f565b5b50919050565b7f456c656374696f6e20616c726561647920657869737473000000000000000000600082015250565b60006111b5601783610d08565b91506111c08261117f565b602082019050919050565b600060208201905081810360008301526111e4816111a8565b9050919050565b60008190508160005260206000209050919050565b60006020601f8301049050919050565b600082821b905092915050565b60006008830261124d7fffffffffffffffffffffffffffffffffffffffffffffffffffffffffffffffff82611210565b6112578683611210565b95508019841693508086168417925050509392505050565b6000819050919050565b600061129461128f61128a84610eb4565b61126f565b610eb4565b9050919050565b6000819050919050565b6112ae83611279565b6112c26112ba8261129b565b84845461121d565b825550505050565b600090565b6112d76112ca565b6112e28184846112a5565b505050565b5b81811015611306576112fb6000826112cf565b6001810190506112e8565b5050565b601f82111561134b5761131c816111eb565b61132584611200565b81016020851015611334578190505b61134861134085611200565b8301826112e7565b50505b505050565b600082821c905092915050565b600061136e60001984600802611350565b1980831691505092915050565b6000611387838361135d565b9150826002028217905092915050565b6113a082610cfd565b67ffffffffffffffff8111156113b9576113b8610a2b565b5b6113c3825461114e565b6113ce82828561130a565b600060209050601f83116001811461140157600084156113ef578287015190505b6113f9858261137b565b865550611461565b601f19841661140f866111eb565b60005b8281101561143757848901518255600182019150602085019450602081019050611412565b868310156114545784890151611450601f89168261135d565b8355505b6001600288020188555050505b505050505050565b7f4e487b7100000000000000000000000000000000000000000000000000000000600052603260045260246000fd5b7f456c656374696f6e20646f6573206e6f74206578697374000000000000000000600082015250565b60006114ce601783610d08565b91506114d982611498565b602082019050919050565b600060208201905081810360008301526114fd816114c1565b9050919050565b600081546115118161114e565b61151b81866110cc565b94506001821660008114611536576001811461154b5761157e565b60ff198316865281151582028601935061157e565b611554856111eb565b60005b8381101561157657815481890152600182019150602081019050611557565b838801955050505b50505092915050565b60006115938284611504565b915081905092915050565b7f4e487b7100000000000000000000000000000000000000000000000000000000600052601160045260246000fd5b60006115d882610eb4565b91507fffffffffffffffffffffffffffffffffffffffffffffffffffffffffffffffff820361160a5761160961159e565b5b600182019050919050565b6000604082019050818103600083015261162f8185610d43565b905081810360208301526116438184610d43565b9050939250505056fea26469706673582212201cf3f35c7797d7c77c4005a6c1545d0bcb59087e772f07fa4b7e24170625fb9f64736f6c63430008180033",
  "linkReferences": {},
  "deployedLinkReferences": {}
}